:030000000208D81B
:0C08D800787FE4F6D8FD75810C0208BCA6
:0E08CA004545204465706172746D656E740062
:08085800C2A1D2A27F017E00C3
:10086000E4FDFCC3ED9FEC9E5015E4FBFA0BBB00CE
:0F087000010AEB64704A70F50DBD00010C80E4C5
:01087F002256
:0E08A0008F90C2A0120858C2A27F0502086005
:0E08AE008F90D2A0120858C2A27F05020860E7
:06082D008B088A09890A0C
:10083300E4F50BF50CAB08AA09A90A850C82850B14
:1008430083120800FF600D1208AE050CE50C70E57D
:04085300050B80E130
:01085700227E
:100880007F147E001208607F381208A07F0C1208C7
:10089000A07F061208A07F011208A07F800208A096
:0E08BC001208807BFF7A0879CA12082D80FE90
:10080000BB010CE58229F582E5833AF583E02250AD
:1008100006E92582F8E622BBFE06E92582F8E222F7
:0D082000E58229F582E5833AF583E4932211
:00000001FF
